:040000000C94003A22
:1074000011248FEF98E09EBF8DBF94B714BE892FD3
:107410008D7011F0892FDCD190E89093F20083E910
:107420008093F2009093F20087E98093F2009093AA
:10743000F20087EB8093F20090936100109261005C
:10744000909362008CE48093620096BF80E486BFD4
:1074500088E18093C10086E08093C20080E1809340
:10746000C4008CE09FD1882499245401EE24FF2489
:1074700064E9662E51E0252E312C412C512C81D10E
:10748000813461F47ED1182F93D1123829F111384B
:1074900011F485E001C083E06CD168C1823411F43D
:1074A00084E103C0853419F485E08AD15FC1853554
:1074B00079F467D1E82EFF2464D1082F10E0102F53
:1074C00000270E291F29000F111F72D178014EC10C
:1074D000863521F484E074D180E0DECF843609F073
:1074E000C3C04FD190E0D82ECC244BD1C80ED11CB4
:1074F00048D1782EE60100E011E043D1F8018193F4
:107500008F012197D1F711BC8F2D992782BD82B5AC
:1075100086958695282FD501C401022E04C0B69504
:10752000A795979587950A94D2F780FD15C0F6E444
:107530007F1691F4D201C10104C0880F991FAA1FC0
:10754000BB1F2A95D2F7882A992AAA2ABB2A6FBA82
:1075500082E98FBB000000002BD1E5E47E16E1F448
:1075600017C0FEEFEF16F3E0FF0608F0FFC0E1BC26
:107570000894E11CF11C8F2D992782BDC050DF4F6C
:10758000888180BD84E08FBBE2E0EFBBCF5FD0405D
:10759000CC15DD0530F3EAC0E114F10409F04EC06A
:1075A0006091000170910101872F90E0982F88274A
:1075B000262F30E0822B932B9093850180938401BA
:1075C0004091020150910301852F90E0982F882768
:1075D000242F30E0822B932B909387018093860198
:1075E000209118018091190190E0982F882730E0B0
:1075F000822B932B909389018093880120911A010B
:1076000080911B0190E0982F882730E0822B932BEC
:1076100090938B0180938A016093180170931901F4
:1076200040931A0150931B018CE0809300016092FB
:10763000010110920201FAE3F0930301E0E0F1E0AE
:1076400011BC808180BD81E081BD818180BD8E2F94
:107650008E0D81BD84EA8FBB82EA8FBB329681E0BA
:10766000E038F80769F782C0843709F071C089D023
:1076700090E0D82ECC2485D0C80ED11C82D0182FF3
:1076800097D01534B9F4E7018601C1BD21968D2F3D
:10769000992782BDE1E0EFBB00000000F3E0CE3FA0
:1076A000DF0710F08FEF01C080B563D001501040AC
:1076B00061F74BC0E7018601209729F4809184018E
:1076C000909185013CC0C130D10529F4809184019D
:1076D000909185010FC0C230D10529F480918601B7
:1076E000909187012CC0C330D10539F48091860177
:1076F00090918701892F992722C0C831D10529F49B
:1077000080918801909189011AC0C931D10529F46D
:107710008091880190918901EDCFCA31D10529F47A
:1077200080918A0190918B010AC0CB31D10529F457
:1077300080918A0190918B01DDCFFE018491219689
:1077400018D00150104009F0B7CFEC0CFD1C0EC052
:10775000853739F42DD08EE10CD085E90AD08FE041
:107760009BCE813511F48CE01DD022D080E101D078
:1077700086CE982F8091C00085FFFCCF9093C600E5
:1077800008958091C00087FFFCCF8091C00084FDE8
:1077900001C0A8958091C60008959AE29A95F1F7E4
:1077A00008950895E0E6F0E098E1908380830895DD
:1077B000E8DF803219F08CE0F5DFFFCF84E1D9CF2C
:1077C0001F93182FDEDF1150E9F7F2DF1F910895A4
:0C77D000282E80E0E7DFECE0FF270994A2
:0277FE00000584
:040000030000740085
:00000001FF
